:02000002B0004C
:1040000000400B000C570B00000006000C000502DE
:084010000401E50C00000000B2
:04401800C8530B007E
:10401C0009480A49884208B505D0094A824202D0AB
:10402C00121A01F019F90748074A0021121A01F077
:10403C0021F9014808BD00BF3CE6032078560B006F
:10404C00A8E60320A8E60320EDE7032070B5074E91
:10405C00074C00F029FDA41BA4080025AC4200D19C
:10406C0070BD56F8043B98470135F7E728560B000E
:10407C004C560B0000F026B808B500F04FF8BDE820
:10408C00084000F0C9BC00F0ABBB00F0B1BB00783D
:10409C00B0FA80F04009704701230370704713B5E4
:1040AC00044661B10846019101F01AF9236801999F
:1040BC00DB680246204602B0BDE81040184702B04B
:1040CC0010BD000038B500F0F7FD4FF4165100F0AC
:1040DC00E7FD0121082001F011F80121072001F072
:1040EC000DF80121062001F009F801F089F800F023
:1040FC0099FE084D084C01F083F80146284600F063
:10410C0090F928B900F0D8FD214600F022FCF2E726
:10411C0038BD00BFB4E60320DC530B0010B52248B9
:10412C0000F09EF8044600F0C7FD21460A2200F07C
:10413C001AFC00F0C1FD00F000FC4A2C4FF001010C
:10414C0011DD082000F0EBFF0021072000F0E7FF55
:10415C000021062000F0E3FF00F0AEFD1349BDE89E
:10416C001040FFF79CBF092C0EDD072000F0D7FF95
:10417C000021062000F0D3FF0021082000F0CFFF23
:10418C0000F09AFD0A49EAE7062000F0C8FF00217A
:10419C00072000F0C4FF0021082000F0C0FF00F051
:1041AC008BFD0449DBE700BFB4E6032003540B008E
:1041BC000A540B0014540B0010B5094B094A9A60B1
:1041CC000024C3E90044032000F07EFA21460120BC
:1041DC0000F082FABDE81040034800F007B800BFB9
:1041EC00A8E603200000FFFFB4E60320704710B5DB
:1041FC0004466021006800F047FE206800F04CFE89
:10420C00B0FA80F0400910BD38B505460C46006880
:10421C00602100F039FE2868036821469B689847A6
:10422C002868002100F034FE08B1002038BD286851
:10423C000222602100F025FE286803681B6998475C
:10424C000028F2D0286803685B6998470446286800
:10425C0003685B699847E4B244EA002080B2E5E762
:10426C000821FFF7D1BF0C21FFF7CEBF70B5044674
:10427C000E4600686021154600F006FE20680368B3
:10428C0031469B68984720680368E9B29B68984759
:10429C0020680368290A9B689847206800F0FCFD99
:1042AC00B0FA80F0400970BD70B504460D46164654
:1042BC00FFF7AAFF00F47F4040EA06022946204699
:1042CC00BDE87040FFF7D2BF70B504460D461646E8
:1042DC00FFF79AFFC0B240EA062229462046BDE805
:1042EC007040FFF7C3BF08B5FFF78EFFC0F3072080
:1042FC0008BD2DE9F04104469DF818700D4698460E
:10430C0016466AB1FFF780FFC0B200EA080343EA21
:10431C0007022946204636B1BDE8F041FFF7C4BF7D
:10432C00FFF7E1FFF1E7BDE8F041FFF7CDBFB1F5D5
:10433C00A07F07B50ED29F290ED84F298CBF4023E2
:10434C000023009301223F230321FFF7D2FF03B088
:10435C005DF804FBC023F4E78023F2E7072907B5D7
:10436C000FD803290FD810D002290CBF0423002327
:10437C0000930122F1230321FFF7BBFF03B05DF88B
:10438C0004FB0E23F4E70C23F2E70823F0E707B550
:10439C00002300930122FE230321FFF7AAFF03B0A1
:1043AC005DF804FB07B50F298CBF0823002300938D
:1043BC000022F7230321FFF79CFF03B05DF804FBF9
:1043CC0007B5022300930122EF230421FFF791FF8D
:1043DC0003B05DF804FBC72907B516D8B32916D866
:1043EC009F2916D88B2916D8772916D8632916D861
:1043FC004A2994BF002101210091F82300220421B5
:10440C00FFF777FF03B05DF804FB0721F4E7062103
:10441C00F2E70521F0E70421EEE70321ECE70221A6
:10442C00EAE738B504460846216000F0FBFC20465C
:10443C00FFF7DDFE054610B90025284638BD20469D
:10444C00FFF711FFB0F5C37FF6D12046C821FFF767
:10445C00C2FF20462821FFF76AFF20460821FFF7FC
:10446C007DFF10212046FFF79DFF2046FFF7A8FF98
:10447C002046FFF78CFFE0E708B5024B1B689B68F2
:10448C00019308BD6802030008B5024B1B68DB688A
:10449C00019308BD6802030008B5024B1B689B68BA
:1044AC00019308BD2C02030008B5024B1B68DB68A6
:1044BC00019308BD2C02030008B5024B1B681B6955
:1044CC00019308BD2C02030008B5024B1B685B6806
:1044DC00019308BD1802030008B5024B1B685B6909
:1044EC00019308BD1802030008B5024B1B685B6CF6
:1044FC00019308BD4802030008B5024B1B685B69B9
:10450C00019308BD6402030008B5024B1B68DB680D
:10451C00019308BD3C02030008B5024B1B681B69E4
:10452C00019308BD3C02030008B5024B1B685B6994
:10453C00019308BD3C02030008B5024B1B689B6944
:10454C00019308BD3C02030008B5024B1B68DB69F4
:10455C00019308BD3C02030008B5024B1B681B6AA3
:10456C00019308BD3C02030008B5024B1B689B6A13
:10457C00019308BD3C02030008B5024B1B681B6C81
:10458C00019308BD3C02030008B5024B1B68DB68B5
:10459C00019308BD2802030008B5024B1B689B69F8
:1045AC00019308BD2802030008B5024B1B68DB69A8
:1045BC00019308BD2802030008B5024B1B681B6A57
:1045CC00019308BD2802030008B5024B1B685B6A07
:1045DC00019308BD2802030008B5024B1B689B6AB7
:1045EC00019308BD2802030008B5024B1B68DB6A67
:1045FC00019308BD2802030008B5024B1B681B6B16
:10460C00019308BD2802030008B5024B1B685B6BC5
:10461C00019308BD2802030008B5024B1B681B6CF4
:10462C00019308BD2802030008B5024B1B681B6DE3
:10463C00019308BD2802030008B5024B1B68DB6917
:10464C00019308BD3002030008B5024B1B681B6ABE
:10465C00019308BD3002030008B5024B1B681B68B0
:10466C00019308BD4C02030008B5024B1B685B6844
:10467C00019308BD4C02030008B5024B1B681B6973
:10468C00019308BD4C02030008B5024B1B685B6923
:10469C00019308BD4C02030008B5024B1B689B69D3
:1046AC00019308BD4C02030008B5024B1B68DB6983
:1046BC00019308BD4C02030008B5024B1B681B6A32
:1046CC00019308BD4C02030008B5024B1B685B68E4
:1046DC00019308BD2002030008B5024B1B68DB6A7E
:1046EC00019308BD2002030008B5034B1B68D3F8E7
:1046FC008830019308BD00002002030008B5034B6D
:10470C001B68D3F89430019308BD0000200203000D
:10471C0008B5024B1B685B68019308BD400203009F
:10472C0008B5024B1B689B68019308BD400203004F
:10473C0008B5024B1B68DB68019308BD40020300FF
:10474C0008B5024B1B681B69019308BD40020300AE
:10475C0008B5024B1B685B69019308BD400203005E
:10476C0008B5024B1B689B69019308BD400203000E
:10477C0008B5024B1B68DB69019308BD40020300BE
:10478C0008B5024B1B681B6A019308BD400203006D
:10479C0008B5024B1B681B6B019308BD400203005C
:1047AC0008B5024B1B685B6B019308BD400203000C
:1047BC0008B5024B1B681B6C019308BD400203003B
:1047CC0008B5024B1B685B6C019308BD40020300EB
:1047DC0008B5024B1B68DB6B019308BD4402030058
:1047EC0008B5024B1B681B68019308BD1C02030033
:1047FC0008B5024B1B685B68019308BD1C020300E3
:10480C0008B5024B1B681B6C019308BD1C0203000E
:10481C0008B5024B1B685B6C019308BD1C020300BE
:10482C00002240681146FFF7ABBF002240681146DA
:10483C00FFF7B6BF40680022FFF7AABF406800220E
:10484C0081F00101FFF794BF002340681A46194616
:10485C00FFF786BF002340681A461946FFF778BF5A
:10486C00002240681146FFF76BBF002240681146DA
:10487C00FFF756BF406800220221FFF759BF002303
:10488C0040681A46FFF744BF024B03225A60024AA3
:10489C001A607047B8E6032028540B0010B5044684
:1048AC0008462170FFF7C8FE00236360204610BD48
:1048BC00054B02221A60054B054A9A600020C3E999
:1048CC000000FFF701BF00BFCCE60320C0E60320C9
:1048DC000000FFFF024800230360FFF705BE00BF86
:1048EC00D0E60320F8B506460D468F180024BD42CD
:1048FC000CD0336815F8011B9B6830469847031E93
:10490C0001DB1C44F3E7002C08BF1C462046F8BD15
:10491C0013B50446084659B1019100F0E1FC236837
:10492C000199DB680246204602B0BDE810401847EA
:10493C0002B010BD03689B68184738B50D210546B9
:10494C00FFF7F8FF0A2104462846FFF7F3FF20443F
:10495C0038BD38B50546FFF7DBFF04462846FFF7A0
:10496C00ECFF204438BD30B58BB00023012A8DF804
:10497C00243098BF0A2209AC0D46B1FBF2F101FBC1
:10498C00125303F0FF03092B94BF30333733DBB2E0
:10499C00AA4204F8013DEFD92146FFF7B9FF0BB04D
:1049AC0030BD0000014B024A1A607047D4E6032068
:1049BC005C540B00024B1A68024B1A60704700BF24
:1049CC003CE60320D8E60320014B00229A60704796
:1049DC00DCE60320014B1860704700BF40E6032063
:1049EC0008B50B4B43B100F067F903681B69984796
:1049FC00002801DDAFF30080064B43B100F0C4FB8F
:104A0C0003681B699847002801DDAFF3008008BDDF
:104A1C00000000000000000008B5FFF7E1FFFFF701
:104A2C005BFD014B186008BD40E703200548064AB2
:104A3C00064908B5121A00F00FFC054B054A1A601E
:104A4C0008BD00BF00F4032004F4032074560B00CF
:104A5C0000F403201E1C279A07B5002300931A4666
:104A6C006FF07701FFF74AFE03B05DF804FB00001E
:104A7C0007B543880A2B08D0502B0BD1094B1B6868
:104A8C004BB103B05DF804EB1847FFF7E5FF03B03B
:104A9C005DF804FB002300931A466FF07701FFF7D3
:104AAC002DFEF4E7F0E6032010B512480021FFF7C5
:104ABC00AFFE114B1A68114B9A42114B0CBF0122DD
:104ACC0000221A7001D0FFF7B1FFFFF7FDFC04467E
:104ADC0000F0D8FB0B4B13B12046AFF30080002144
:104AEC000848FFF775FEBDE8104007480021FFF7A6
:104AFC00FBBD00BFE1490B0000F403201E1C279AEC
:104B0C00ECE60320000000007D4A0B00704710B556
:104B1C0018210446FFF7B9FA204610BDF0B5037D05
:104B2C00062B8DB00E4600F104074FF0000412D096
:104B3C0000F1080515F8011D0A223046FFF713FF96
:104B4C00AF42044419D0002CF4D02E213046FFF78C
:104B5C00F1FE0444EEE72F236A4639460A208DF80D
:104B6C000040FFF7C9FC684600F0BAFB3368024608
:104B7C00DB68694630469847044620460DB0F0BDC8
:104B8C0010B5054B0446112240F8043B002100F0FF
:104B9C0071FB204610BD00BF84540B000346074A2E
:104BAC0010B543F8042B01F1100251F8044B43F8F3
:104BBC00044B9142F9D10A781A7010BD84540B0041
:104BCC0010B59DF8084044EA032343EA024242EA46
:104BDC00016104234160037510BD000007B5064B4D
:104BEC000360CB7800938B784A780978FFF7E8FF5D
:104BFC0003B05DF804FB00BF84540B004174704794
:104C0C007047704708B50021007CFFF745FD40EA6E
:104C1C00E07008BD08B50121007CFFF73DFD40EABE
:104C2C00E07008BD08B5007CFFF72EFD20EAE070AF
:104C3C0008BD08B5007CFFF71FFD20EAE07008BD39
:104C4C0013B50446007C0191FFF71EFD0028019965
:104C5C0001DC607C20B1207CFFF726FD20EAE070AF
:104C6C0002B010BD007CFFF727BD10B5142104461F
:104C7C00FFF70BFA204610BD10B54FF47A730446BB
:104C8C0008460021C4E90113044B2360012320745E
:104C9C0063741146FFF7E0FC204610BD98540B00DE
:104CAC00007C0022FFF7E0BC10B514220446002162
:104CBC0000F0E0FA204610BD10B50F4C88B003A8E8
:104CCC00FFF7F2FF2178BFF35B8F11F001010FD1D9
:104CDC0020460191FFF7DBF9019948B103AA074877
:104CEC00FFF7CAFF2046FFF7D7F9054800F0AEFAE8
:104CFC00024808B010BD00BFF4E60320F8E603201C
:104D0C000D4C0B0070474174704708B5007CFFF7E1
:104D1C002BFC20EAE07008BD08B5007CFFF7FCFB1B
:104D2C0020EAE07008BD08B5007CFFF705FC40EAFE
:104D3C00E07008BD08B5007CFFF7F6FB40EAE070B8
:104D4C0008BD007CFFF700BC37B5457C04462DB18F
:104D5C00207C03B0BDE83040FFF7D6BB007C01914E
:104D6C00FFF702FC00280199F2DC284603B030BDA5
:104D7C0010B514210446FFF788F9204610BD000039
:104D8C0010B54FF47A730446084611460022C4E964
:104D9C000123044B2360012320746374FFF7ECFBA5
:104DAC00204610BDC8540B007047F8B50646154692
:104DBC000C468F18BC4206D0336814F8011B9B6854
:104DCC0030469847F6E72846F8BD007C0022FFF7EE
:104DDC00F3BB007C0021FFF7F7BB007C0021FFF741
:104DEC00FBBB007C0021FFF7FFBB007C0021FFF721
:104DFC0003BC10B514210446FFF747F9204610BD3B
:104E0C0010B54FF47A73044608460021C4E9011327
:104E1C00034B236020741146FFF7FEFB204610BDA8
:104E2C00F8540B000023007C1A461946FFF7ACBB64
:104E3C007FB500221423CDE90122ADF804300B78A4
:104E4C008DF808304B680393CB680493007C0B7A85
:104E5C00059301A9FFF7E8FB07B05DF804FB1FB54C
:104E6C00003B8DF800104FF06401039118BF012333
:104E7C00694601928DF80830FFF7DAFF05B05DF84E
:104E8C0004FB0123FFF7EBBF007C0022FFF784BB80
:104E9C00007C0022FFF788BB0121FFF7F9BF00223D
:104EAC0040681146FFF74CBC002240681146FFF7E2
:104EBC0067BC002240681146FFF772BC40680022B4
:104ECC00FFF766BC4068002281F00101FFF750BC7F
:104EDC00002340681A461946FFF742BC002340687D
:104EEC001A461946FFF734BC002240681146FFF7FA
:104EFC0017BC406800220221FFF71ABC002340684F
:104F0C001A46FFF705BC0000024B04225A60024A05
:104F1C001A6070470CE7032020550B0000234068F3
:104F2C001A46FFF7F5BB406800220221FFF700BCD0
:104F3C00002240681146FFF7F3BB0022406811467F
:104F4C00FFF7FEBB002340681A461946FFF700BC6A
:104F5C00002340681A461946FFF702BC406800213E
:104F6C00FFF726BC40680021FFF72ABC40680022EE
:104F7C0081F00101FFF7FCBB40680022FFF708BC81
:104F8C00002240681146FFF70BBC00224068114616
:104F9C00FFF7F6BB2DE9F04395B014460D460746D6
:104FAC00FFF7EEFD00211C220DA8009100F062F924
:104FBC0040230C9320466B460CAA0021FFF764FAA1
:104FCC00044600284BD1024601216868FFF7B8FB64
:104FDC000221804622466868FFF7B2FB009E81469C
:104FEC002146002E3BD0002939D17368022B03D007
:104FFC000A2B11D0F669F4E7B8F1000FFAD07169F9
:10500C0006A8043107ADFFF7E9FD0FCD3C1D0FC419
:10501C002B6823704146EDE7B9F1000FEAD07469B3
:10502C00102201A800F026F906238DF8143001ADEA
:10503C0004F108031834186859682A4603C2083367
:10504C00A3421546F7D101A906A807ADFFF7A6FDA7
:10505C000FCD3C1D0FC42B6823704946CAE700983E
:10506C00FFF70AFA384615B0BDE8F083024B034A45
:10507C001A6000225A60704714E703205C550B003D
:10508C00232813B502D9002002B010BDA0F10B03E8
:10509C00022B1AD8174C2178BFF35B8F11F001014A
:1050AC000BD120460191FEF7F2FF019928B112486D
:1050BC00FFF7F4FB2046FEF7EFFF0F4B1878FFF7D6
:1050CC00C3FA0028DFD10120DEE7012809D800F05F
:1050DC0097F80021007CFFF797FA80F00100C0B22E
:1050EC00D2E709380128EED800F04EF8007CFFF723
:1050FC0033FAF2E71CE7032020E70320232838B516
:10510C0004460D460AD8FF2908D0FFF7B9FF28B18D
:10511C0029462046BDE83840FFF7BEB938BD38B542
:10512C0004460D46FFF7C0F9FF2810D0062804D816
:10513C004D2323FA00F0C30709D42046FFF7A0FF44
:10514C0028B129462046BDE83840FFF7B5B938BD2F
:10515C007047000038B5044614252A46002100F09B
:10516C0089F825804025074925812846258200F0AD
:10517C006BF804496060284600F066F8E060204651
:10518C0038BD00BF90550B0030B50E4D2978BFF3DC
:10519C005B8F11F0010487B011D12846FEF777FF21
:1051AC0068B101A8FFF7D6FF01AA21460648FFF710
:1051BC00E7FD2846FEF770FF044800F047F8024868
:1051CC0007B030BD28E703202CE703205D510B000E
:1051DC007047000038B52025142304460360856011
:1051EC0005610649284600F02FF8044960602846FE
:1051FC0000F02AF8E060204638BD00BF90550B0047
:10520C0030B50E4D2978BFF35B8F11F0010487B0D8
:10521C0011D12846FEF73BFF68B101A8FFF7DAFF72
:10522C0001AA21460648FFF7EBFD2846FEF734FF9E
:10523C00044800F00BF8024807B030BD44E70320E7
:10524C0048E70320DD510B00FEF71DBF002301468C
:10525C001A46184600F04CB80A44914200F1FF334C
:10526C0000D1704710B511F8014B03F8014F914272
:10527C00F9D110BD02440346934200D1704703F8A4
:10528C00011BF9E738B5104B1D68AB6B0446B3B97D
:10529C001820FFF7A5FA0246A86320B90B4B0C485F
:1052AC004221FFF7ADFA0B490B4BC0E900130B4B36
:1052BC0083600B23838100210120C2E90401AB6BC5
:1052CC0000221C615A6138BD40E6032091550B0049
:1052DC00A8550B000E33CDAB34126DE6ECDE050099
:1052EC00034613F8012B002AFBD1181A013870471A
:1052FC002DE9F843DFF8B8800646D8F800001F46C1
:10530C000D46914600F056F8254B1C6834B9254CD7
:10531C001C60254B13B11B68C4F8883063681F2BC5
:10532C0007DDD8F8000000F047F84FF0FF30BDE87B
:10533C00F8834EB3D4F8880088B91C4B23B9D8F83D
:10534C00000000F038F8F0E74FF48470FFF748FAEB
:10535C000028F4D00023C0E94033C4F88800636807
:10536C0040F8239001229A4000EB8301D0F80031E1
:10537C001343C0F80031022EC1F8807002BFD0F880
:10538C0004311343C0F804316368D8F800005A1C88
:10539C000233626044F8235000F00EF80020C6E798
:1053AC00E8E703205CE7032000000000ED470B005A
:1053BC00A4E6032070477047704700001D400B00A7
:1053CC0059400B0081400B0085400B000000000091
:1053DC00446576696365206E6F7420666F756E64C4
:1053EC002E20506C6561736520636865636B207754
:1053FC006972696E672E00524544204F4E00594524
:10540C004C4C4F57204F4E00475245454E204F4E67
:10541C000000000000000000000000008B480B00A2
:10542C0081480B0077480B006D480B0061480B005E
:10543C0055480B00694F0B00714F0B0049480B008E
:10544C0041480B0037480B002D480B00A14F0B00B7
:10545C006170700025592D256D2D25645425483A11
:10546C00254D3A2553257A0061736374696D650087
:10547C000000000000000000294B0B00194B0B0032
:10548C001B4B0B0000000000000000000F4C0B0039
:10549C00774C0B004D4C0B00F1480B003F4C0B00B4
:1054AC00114C0B00214C0B00714C0B00314C0B00C0
:1054BC00094C0B000000000000000000114D0B0017
:1054CC007D4D0B00554D0B00F1480B00254D0B008D
:1054DC00414D0B00334D0B004F4D0B00134D0B008A
:1054EC00174D0B000000000000000000B54D0B0034
:1054FC00FF4D0B00D74D0B00B74D0B00DF4D0B00D4
:10550C00E74D0B00EF4D0B00F74D0B0000000000BA
:10551C0000000000094F0B00FF4E0B00F54E0B0076
:10552C00AB4E0B00E94E0B00DD4E0B00694F0B0030
:10553C00714F0B00D14E0B00C94E0B00BF4E0B0030
:10554C00B54E0B00A14F0B00000000000000000046
:10555C00294F0B00334F0B003D4F0B00474F0B00F7
:10556C00514F0B005D4F0B00694F0B00714F0B003F
:10557C00794F0B00854F0B008D4F0B00974F0B0095
:10558C00A14F0B00005245454E54206D616C6C6F61
:10559C006320737563636565646564002F6D6E7459
:1055AC002F776F726B73706163652F776F726B738C
:1055BC00706163652F4743432D31302D70697065E1
:1055CC006C696E652F6A656E6B696E732D4743430C
:1055DC002D31302D706970656C696E652D34385FB6
:1055EC0032303230313132345F313630363138305E
:1055FC003634312F7372632F6E65776C69622F6E40
:10560C0065776C69622F6C6962632F7374646C6963
:10561C00622F72616E642E6300000000C5410B00A6
:10562C0095480B00BD480B00E1480B00B1490B003D
:10563C00C1490B00D5490B00154F0B0079500B00DD
:04564C00000000005A
:10565000040000001400000003000000474E550045
:10566000205FB8A458CE14090E8CE90548C6D7119E
:04567000655D9D6275
:045674000000000032
:1056780074540B0044E60320000000000000000002
:105688000000000000000000000000000000000012
:105698000000000000000000000000000000000002
:1056A80000000000000000000000000000000000F2
:1056B80000000000000000000000000000000000E2
:1056C80000000000000000000000000000000000D2
:0C56D8000000000000000000ECE70320D0
:1056E400FFFFFFFF00000102030405060708090A83
:1056F4000B0C0D0E0F101112131415161718191A7E
:085704001B1C1D1E1F202800C4
:04570C007856341285
:04000003B000401CED
:00000001FF
